{
  "contractName": "Battleship",
  "abi": [
    {
      "constant": true,
      "inputs": [],
      "name": "game",
      "outputs": [
        {
          "name": "player1",
          "type": "address"
        },
        {
          "name": "player2",
          "type": "address"
        },
        {
          "name": "turn",
          "type": "address"
        },
        {
          "name": "player1_hits",
          "type": "uint256"
        },
        {
          "name": "player2_hits",
          "type": "uint256"
        },
        {
          "name": "timelock",
          "type": "uint256"
        },
        {
          "name": "duration",
          "type": "uint256"
        },
        {
          "name": "threshold",
          "type": "uint256"
        },
        {
          "name": "gameNo",
          "type": "uint256"
        },
        {
          "name": "winner",
          "type": "address"
        }
      ],
      "payable": false,
      "stateMutability": "view",
      "type": "function"
    },
    {
      "inputs": [],
      "payable": false,
      "stateMutability": "nonpayable",
      "type": "constructor"
    },
    {
      "anonymous": false,
      "inputs": [
        {
          "indexed": false,
          "name": "creator",
          "type": "address"
        }
      ],
      "name": "NewGame",
      "type": "event"
    },
    {
      "anonymous": false,
      "inputs": [
        {
          "indexed": false,
          "name": "player",
          "type": "address"
        }
      ],
      "name": "PlayerJoinedGame",
      "type": "event"
    },
    {
      "anonymous": false,
      "inputs": [
        {
          "indexed": false,
          "name": "time",
          "type": "uint256"
        }
      ],
      "name": "GameStartTime",
      "type": "event"
    },
    {
      "anonymous": false,
      "inputs": [
        {
          "indexed": false,
          "name": "player",
          "type": "address"
        }
      ],
      "name": "GameBoardInitSuccess",
      "type": "event"
    },
    {
      "anonymous": false,
      "inputs": [
        {
          "indexed": false,
          "name": "player",
          "type": "address"
        },
        {
          "indexed": false,
          "name": "x",
          "type": "uint8"
        },
        {
          "indexed": false,
          "name": "y",
          "type": "uint8"
        }
      ],
      "name": "PlayerMadeMove",
      "type": "event"
    },
    {
      "anonymous": false,
      "inputs": [
        {
          "indexed": false,
          "name": "cur_time",
          "type": "uint256"
        },
        {
          "indexed": false,
          "name": "prev_time",
          "type": "uint256"
        },
        {
          "indexed": false,
          "name": "diff",
          "type": "uint256"
        },
        {
          "indexed": false,
          "name": "duration",
          "type": "uint256"
        }
      ],
      "name": "TimedOut",
      "type": "event"
    },
    {
      "anonymous": false,
      "inputs": [
        {
          "indexed": false,
          "name": "winner",
          "type": "address"
        }
      ],
      "name": "GameWinner",
      "type": "event"
    },
    {
      "anonymous": false,
      "inputs": [
        {
          "indexed": false,
          "name": "player",
          "type": "address"
        },
        {
          "indexed": false,
          "name": "x",
          "type": "uint8"
        },
        {
          "indexed": false,
          "name": "y",
          "type": "uint8"
        },
        {
          "indexed": false,
          "name": "status",
          "type": "string"
        }
      ],
      "name": "PlayerMadeAHit",
      "type": "event"
    },
    {
      "anonymous": false,
      "inputs": [
        {
          "indexed": false,
          "name": "cell",
          "type": "uint256"
        },
        {
          "indexed": false,
          "name": "x",
          "type": "uint256"
        },
        {
          "indexed": false,
          "name": "y",
          "type": "uint256"
        }
      ],
      "name": "NotValidBoard",
      "type": "event"
    },
    {
      "anonymous": false,
      "inputs": [
        {
          "indexed": false,
          "name": "status",
          "type": "bool"
        }
      ],
      "name": "NotEmptyBoard",
      "type": "event"
    },
    {
      "constant": false,
      "inputs": [],
      "name": "newGame",
      "outputs": [],
      "payable": false,
      "stateMutability": "nonpayable",
      "type": "function"
    },
    {
      "constant": false,
      "inputs": [],
      "name": "joinGame",
      "outputs": [],
      "payable": true,
      "stateMutability": "payable",
      "type": "function"
    },
    {
      "constant": true,
      "inputs": [],
      "name": "getAddress",
      "outputs": [
        {
          "name": "",
          "type": "address"
        },
        {
          "name": "",
          "type": "address"
        }
      ],
      "payable": false,
      "stateMutability": "view",
      "type": "function"
    },
    {
      "constant": true,
      "inputs": [
        {
          "name": "state",
          "type": "uint8"
        }
      ],
      "name": "tostring",
      "outputs": [
        {
          "name": "",
          "type": "string"
        }
      ],
      "payable": false,
      "stateMutability": "pure",
      "type": "function"
    },
    {
      "constant": true,
      "inputs": [
        {
          "name": "_board",
          "type": "uint256[17]"
        }
      ],
      "name": "extract_ships",
      "outputs": [
        {
          "name": "",
          "type": "uint256[5][5]"
        }
      ],
      "payable": false,
      "stateMutability": "pure",
      "type": "function"
    },
    {
      "constant": false,
      "inputs": [
        {
          "name": "_board",
          "type": "uint256[17]"
        }
      ],
      "name": "isValidBoard",
      "outputs": [
        {
          "name": "",
          "type": "bool"
        }
      ],
      "payable": false,
      "stateMutability": "nonpayable",
      "type": "function"
    },
    {
      "constant": false,
      "inputs": [
        {
          "name": "_board",
          "type": "bytes32[10][10]"
        }
      ],
      "name": "isEmpty",
      "outputs": [
        {
          "name": "",
          "type": "bool"
        }
      ],
      "payable": false,
      "stateMutability": "nonpayable",
      "type": "function"
    },
    {
      "constant": true,
      "inputs": [],
      "name": "getBoard1",
      "outputs": [
        {
          "name": "",
          "type": "bytes32[10][10]"
        }
      ],
      "payable": false,
      "stateMutability": "view",
      "type": "function"
    },
    {
      "constant": false,
      "inputs": [
        {
          "name": "_board",
          "type": "uint256[17]"
        },
        {
          "name": "_salt",
          "type": "string"
        }
      ],
      "name": "initialize_board",
      "outputs": [],
      "payable": false,
      "stateMutability": "nonpayable",
      "type": "function"
    },
    {
      "constant": false,
      "inputs": [
        {
          "name": "x",
          "type": "uint8"
        },
        {
          "name": "y",
          "type": "uint8"
        }
      ],
      "name": "commit_move",
      "outputs": [],
      "payable": false,
      "stateMutability": "nonpayable",
      "type": "function"
    },
    {
      "constant": false,
      "inputs": [
        {
          "name": "x",
          "type": "uint8"
        },
        {
          "name": "y",
          "type": "uint8"
        },
        {
          "name": "_salt",
          "type": "string"
        }
      ],
      "name": "reveal_move",
      "outputs": [
        {
          "name": "",
          "type": "string"
        }
      ],
      "payable": false,
      "stateMutability": "nonpayable",
      "type": "function"
    },
    {
      "constant": false,
      "inputs": [],
      "name": "check_n_set_winner",
      "outputs": [],
      "payable": false,
      "stateMutability": "nonpayable",
      "type": "function"
    },
    {
      "constant": true,
      "inputs": [],
      "name": "next_turn",
      "outputs": [
        {
          "name": "",
          "type": "address"
        }
      ],
      "payable": false,
      "stateMutability": "view",
      "type": "function"
    },
    {
      "constant": false,
      "inputs": [],
      "name": "claimTimeout",
      "outputs": [],
      "payable": false,
      "stateMutability": "nonpayable",
      "type": "function"
    }
  ],
  "bytecode": "0x608060405234801561001057600080fd5b50336000806101000a81548173ffffffffffffffffffffffffffffffffffffffff021916908373ffffffffffffffffffffffffffffffffffffffff160217905550613a25806100606000396000f3006080604052600436106100da576000357c0100000000000000000000000000000000000000000000000000000000900463ffffffff1680620dab78146100df57806309e6c5ca1461011c5780630e1da6c3146101c05780631f574f2d146101d757806329f41815146102895780633564f044146102e0578063363a94c51461038957806338cc4831146103a05780637d03f5f31461042a5780639d03526214610441578063a64173fd1461053d578063b0965154146105b3578063c0750d191461064c578063c3fe3e28146106b7578063d4f77b1c146107d1575b600080fd5b3480156100eb57600080fd5b5061011a600480360381019080803560ff169060200190929190803560ff1690602001909291905050506107db565b005b34801561012857600080fd5b506101a660048036038101908080610c800190600a80602002604051908101604052809291906000905b828210156101955783826101400201600a806020026040519081016040528092919082600a60200280828437820191505050505081526020019060010190610152565b505050509192919290505050610efe565b604051808215151515815260200191505060405180910390f35b3480156101cc57600080fd5b506101d5610fca565b005b3480156101e357600080fd5b50610228600480360381019080806102200190601180602002604051908101604052809291908260116020028082843782019150505050509192919290505050611383565b604051808260056000925b818410156102795782846020020151600560200280838360005b8381101561026857808201518184015260208101905061024d565b505050509050019260010192610233565b9250505091505060405180910390f35b34801561029557600080fd5b5061029e6114aa565b604051808273ffffffffffffffffffffffffffffffffffffffff1673ffffffffffffffffffffffffffffffffffffffff16815260200191505060405180910390f35b3480156102ec57600080fd5b5061030e600480360381019080803560ff169060200190929190505050611582565b6040518080602001828103825283818151815260200191508051906020019080838360005b8381101561034e578082015181840152602081019050610333565b50505050905090810190601f16801561037b5780820380516001836020036101000a031916815260200191505b509250505060405180910390f35b34801561039557600080fd5b5061039e61169d565b005b3480156103ac57600080fd5b506103b561197e565b604051808373ffffffffffffffffffffffffffffffffffffffff1673ffffffffffffffffffffffffffffffffffffffff1681526020018273ffffffffffffffffffffffffffffffffffffffff1673ffffffffffffffffffffffffffffffffffffffff1681526020019250505060405180910390f35b34801561043657600080fd5b5061043f6119d4565b005b34801561044d57600080fd5b506104c2600480360381019080803560ff169060200190929190803560ff169060200190929190803590602001908201803590602001908080601f0160208091040260200160405190810160405280939291908181526020018383808284378201915050505050509192919290505050611c15565b6040518080602001828103825283818151815260200191508051906020019080838360005b838110156105025780820151818401526020810190506104e7565b50505050905090810190601f16801561052f5780820380516001836020036101000a031916815260200191505b509250505060405180910390f35b34801561054957600080fd5b5061055261263e565b6040518082600a6000925b818410156105a35782846020020151600a60200280838360005b83811015610592578082015181840152602081019050610577565b50505050905001926001019261055d565b9250505091505060405180910390f35b3480156105bf57600080fd5b5061064a600480360381019080806102200190601180602002604051908101604052809291908260116020028082843782019150505050509192919290803590602001908201803590602001908080601f01602080910402602001604051908101604052809392919081815260200183838082843782019150505050505091929192905050506126c8565b005b34801561065857600080fd5b5061069d60048036038101908080610220019060118060200260405190810160405280929190826011602002808284378201915050505050919291929050505061317f565b604051808215151515815260200191505060405180910390f35b3480156106c357600080fd5b506106cc61331b565b604051808b73ffffffffffffffffffffffffffffffffffffffff1673ffffffffffffffffffffffffffffffffffffffff1681526020018a73ffffffffffffffffffffffffffffffffffffffff1673ffffffffffffffffffffffffffffffffffffffff1681526020018973ffffffffffffffffffffffffffffffffffffffff1673ffffffffffffffffffffffffffffffffffffffff1681526020018881526020018781526020018681526020018581526020018481526020018381526020018273ffffffffffffffffffffffffffffffffffffffff1673ffffffffffffffffffffffffffffffffffffffff1681526020019a505050505050505050505060405180910390f35b6107d96133dd565b005b60008260ff161180156107f15750600a8260ff16105b8015610800575060008160ff16115b801561080f5750600a8160ff16105b1515610883576040517f08c379a000000000000000000000000000000000000000000000000000000000815260040180806020018281038252600c8152602001807f496e76616c6964206d6f7665000000000000000000000000000000000000000081525060200191505060405180910390fd5b600073ffffffffffffffffffffffffffffffffffffffff16600160e50160009054906101000a900473ffffffffffffffffffffffffffffffffffffffff1673ffffffffffffffffffffffffffffffffffffffff1614151561094c576040517f08c379a00000000000000000000000000000000000000000000000000000000081526004018080602001828103825260198152602001807f47616d6520616c72656164792068617320612077696e6e65720000000000000081525060200191505060405180910390fd5b3373ffffffffffffffffffffffffffffffffffffffff16600160de0160009054906101000a900473ffffffffffffffffffffffffffffffffffffffff1673ffffffffffffffffffffffffffffffffffffffff16141515610a14576040517f08c379a000000000000000000000000000000000000000000000000000000000815260040180806020018281038252600d8152602001807f4e6f7420796f7572207475726e0000000000000000000000000000000000000081525060200191505060405180910390fd5b600160e20154600160e10154420311151515610a98576040517f08c379a000000000000000000000000000000000000000000000000000000000815260040180806020018281038252600d8152602001807f4d6f76652054696d65644f75740000000000000000000000000000000000000081525060200191505060405180910390fd5b600160000160009054906101000a900473ffffffffffffffffffffffffffffffffffffffff1673ffffffffffffffffffffffffffffffffffffffff163373ffffffffffffffffffffffffffffffffffffffff161415610c6657610b766001606601600a80602002604051908101604052809291906000905b82821015610b6d578382600a0201600a806020026040519081016040528092919082600a8015610b59576020028201915b81546000191681526020019060010190808311610b41575b505050505081526020019060010190610b10565b50505050610efe565b151515610c11576040517f08c379a000000000000000000000000000000000000000000000000000000000815260040180806020018281038252602f8152602001807f436f6d6d6974696e67206d6f7665206265666f726520706c617965723220696e81526020017f697469616c697a656420626f617264000000000000000000000000000000000081525060400191505060405180910390fd5b6002600160ca018360ff16600a81101515610c2857fe5b018260ff16600a81101515610c3957fe5b602091828204019190066101000a81548160ff02191690836002811115610c5c57fe5b0217905550610e30565b6001800160009054906101000a900473ffffffffffffffffffffffffffffffffffffffff1673ffffffffffffffffffffffffffffffffffffffff163373ffffffffffffffffffffffffffffffffffffffff161415610e2f57610d436001600201600a80602002604051908101604052809291906000905b82821015610d3a578382600a0201600a806020026040519081016040528092919082600a8015610d26576020028201915b81546000191681526020019060010190808311610d0e575b505050505081526020019060010190610cdd565b50505050610efe565b151515610dde576040517f08c379a000000000000000000000000000000000000000000000000000000000815260040180806020018281038252602f8152602001807f436f6d6d6974696e67206d6f7665206265666f726520706c617965723120696e81526020017f697469616c697a656420626f617264000000000000000000000000000000000081525060400191505060405180910390fd5b6002600160d4018360ff16600a81101515610df557fe5b018260ff16600a81101515610e0657fe5b602091828204019190066101000a81548160ff02191690836002811115610e2957fe5b02179055505b5b610e386114aa565b600160de0160006101000a81548173ffffffffffffffffffffffffffffffffffffffff021916908373ffffffffffffffffffffffffffffffffffffffff1602179055507f5d9cd1dce9c1219eb7a3e210b9a08e452ca68f1854089d5e0ae3a838ff8daea7338383604051808473ffffffffffffffffffffffffffffffffffffffff1673ffffffffffffffffffffffffffffffffffffffff1681526020018360ff1660ff1681526020018260ff1660ff168152602001935050505060405180910390a15050565b60008060008091505b600a8260ff161015610fbe57600090505b600a8160ff161015610fb1576000801916848360ff16600a81101515610f3a57fe5b60200201518260ff16600a81101515610f4f57fe5b602002015160001916141515610fa4577fd8e672a35c6b8a6b2dcb289678ab12c55c0103725f29b76399a4d8dc7460c0986001604051808215151515815260200191505060405180910390a160009250610fc3565b8080600101915050610f18565b8180600101925050610f07565b600192505b5050919050565b600160e20154600160e1015442031015151561104e576040517f08c379a00000000000000000000000000000000000000000000000000000000081526004018080602001828103825260168152602001807f47616d65206e6f74207965742074696d6564206f75740000000000000000000081525060200191505060405180910390fd5b600160000160009054906101000a900473ffffffffffffffffffffffffffffffffffffffff1673ffffffffffffffffffffffffffffffffffffffff16600160de0160009054906101000a900473ffffffffffffffffffffffffffffffffffffffff1673ffffffffffffffffffffffffffffffffffffffff1614156111b7576001800160009054906101000a900473ffffffffffffffffffffffffffffffffffffffff16600160e50160006101000a81548173ffffffffffffffffffffffffffffffffffffffff021916908373ffffffffffffffffffffffffffffffffffffffff1602179055506001800160009054906101000a900473ffffffffffffffffffffffffffffffffffffffff1673ffffffffffffffffffffffffffffffffffffffff166108fc3073ffffffffffffffffffffffffffffffffffffffff16319081150290604051600060405180830381858888f193505050501580156111b5573d6000803e3d6000fd5b505b6001800160009054906101000a900473ffffffffffffffffffffffffffffffffffffffff1673ffffffffffffffffffffffffffffffffffffffff16600160de0160009054906101000a900473ffffffffffffffffffffffffffffffffffffffff1673ffffffffffffffffffffffffffffffffffffffff16141561132157600160000160009054906101000a900473ffffffffffffffffffffffffffffffffffffffff16600160e50160006101000a81548173ffffffffffffffffffffffffffffffffffffffff021916908373ffffffffffffffffffffffffffffffffffffffff160217905550600160000160009054906101000a900473ffffffffffffffffffffffffffffffffffffffff1673ffffffffffffffffffffffffffffffffffffffff166108fc3073ffffffffffffffffffffffffffffffffffffffff16319081150290604051600060405180830381858888f1935050505015801561131f573d6000803e3d6000fd5b505b7f1049997c6b2e00774338012916551864da8b939e8cfb6aff1cb5eaf827d9e7df42600160e10154600160e101544203600160e201546040518085815260200184815260200183815260200182815260200194505050505060405180910390a1565b61138b613954565b611393613954565b60008060008060009350600092505b601184101561149d57600191505b6011848301101561143657868285016011811015156113cb57fe5b6020020151600188866011811015156113e057fe5b602002015101148061141a575081600a0287856011811015156113ff57fe5b602002015101878360118110151561141357fe5b6020020151145b1561142c578180600101925050611431565b611436565b6113b0565b8390505b8181101561148d57868160118110151561145057fe5b6020020151858460058110151561146357fe5b602002015185830360058110151561147757fe5b602002018181525050808060010191505061143a565b81935082806001019350506113a2565b8495505050505050919050565b6000600160000160009054906101000a900473ffffffffffffffffffffffffffffffffffffffff1673ffffffffffffffffffffffffffffffffffffffff16600160de0160009054906101000a900473ffffffffffffffffffffffffffffffffffffffff1673ffffffffffffffffffffffffffffffffffffffff161415611556576001800160009054906101000a900473ffffffffffffffffffffffffffffffffffffffff16905061157f565b600160000160009054906101000a900473ffffffffffffffffffffffffffffffffffffffff1690505b90565b606081600281111561159057fe5b6001600281111561159d57fe5b14156115e0576040805190810160405280600181526020017f58000000000000000000000000000000000000000000000000000000000000008152509050611698565b8160028111156115ec57fe5b6002808111156115f857fe5b141561163b576040805190810160405280600181526020017f4f000000000000000000000000000000000000000000000000000000000000008152509050611698565b81600281111561164757fe5b6000600281111561165457fe5b1415611697576040805190810160405280600181526020017f20000000000000000000000000000000000000000000000000000000000000008152509050611698565b5b919050565b600073ffffffffffffffffffffffffffffffffffffffff16600160e50160009054906101000a900473ffffffffffffffffffffffffffffffffffffffff1673ffffffffffffffffffffffffffffffffffffffff1614156118f4576011600160df01541015156117f757600160000160009054906101000a900473ffffffffffffffffffffffffffffffffffffffff16600160e50160006101000a81548173ffffffffffffffffffffffffffffffffffffffff021916908373ffffffffffffffffffffffffffffffffffffffff160217905550600160e50160009054906101000a900473ffffffffffffffffffffffffffffffffffffffff1673ffffffffffffffffffffffffffffffffffffffff166108fc3073ffffffffffffffffffffffffffffffffffffffff16319081150290604051600060405180830381858888f193505050501580156117f1573d6000803e3d6000fd5b506118f3565b6011600160e001541015156118f2576001800160009054906101000a900473ffffffffffffffffffffffffffffffffffffffff16600160e50160006101000a81548173ffffffffffffffffffffffffffffffffffffffff021916908373ffffffffffffffffffffffffffffffffffffffff160217905550600160e50160009054906101000a900473ffffffffffffffffffffffffffffffffffffffff1673ffffffffffffffffffffffffffffffffffffffff166108fc3073ffffffffffffffffffffffffffffffffffffffff16319081150290604051600060405180830381858888f193505050501580156118f0573d6000803e3d6000fd5b505b5b5b7f946966aa5bcb45de82b706a1b6c350017152137d8683e879ec9b0796fe3ff757600160e50160009054906101000a900473ffffffffffffffffffffffffffffffffffffffff16604051808273ffffffffffffffffffffffffffffffffffffffff1673ffffffffffffffffffffffffffffffffffffffff16815260200191505060405180910390a1565b600080600160000160009054906101000a900473ffffffffffffffffffffffffffffffffffffffff166001800160009054906101000a900473ffffffffffffffffffffffffffffffffffffffff16915091509091565b6000806000809054906101000a900473ffffffffffffffffffffffffffffffffffffffff1673ffffffffffffffffffffffffffffffffffffffff163373ffffffffffffffffffffffffffffffffffffffff16141515611a9b576040517f08c379a000000000000000000000000000000000000000000000000000000000815260040180806020018281038252601e8152602001807f4f6e6c79206f776e65722063616e20637265617465206e65772047616d65000081525060200191505060405180910390fd5b673782dace9d900000600160e30181905550603c600160e201819055506000600160df01819055506000600160e00181905550600091505b600a8260ff161015611b3e57600090505b600a8160ff161015611b3157600060016002018360ff16600a81101515611b0757fe5b600a02018260ff16600a81101515611b1b57fe5b0181600019169055508080600101915050611ae4565b8180600101925050611ad3565b600091505b600a8260ff161015611bae57600090505b600a8160ff161015611ba157600060016066018360ff16600a81101515611b7757fe5b600a02018260ff16600a81101515611b8b57fe5b0181600019169055508080600101915050611b54565b8180600101925050611b43565b7f70afdeea5872e39fcc84edc30bfbbdc4892e22020c423596b2e5c89f4fc2050933604051808273ffffffffffffffffffffffffffffffffffffffff1673ffffffffffffffffffffffffffffffffffffffff16815260200191505060405180910390a15050565b606060008460ff16118015611c2d5750600a8460ff16105b8015611c3c575060008360ff16115b8015611c4b5750600a8360ff16105b1515611cbf576040517f08c379a000000000000000000000000000000000000000000000000000000000815260040180806020018281038252600c8152602001807f496e76616c6964206d6f7665000000000000000000000000000000000000000081525060200191505060405180910390fd5b600160e20154600160e10154420311151515611d43576040517f08c379a00000000000000000000000000000000000000000000000000000000081526004018080602001828103825260168152602001807f4c61746520696e2072657665616c696e67206d6f76650000000000000000000081525060200191505060405180910390fd5b600160000160009054906101000a900473ffffffffffffffffffffffffffffffffffffffff1673ffffffffffffffffffffffffffffffffffffffff163373ffffffffffffffffffffffffffffffffffffffff1614156121bd57611de0600160d4018560ff16600a81101515611db457fe5b018460ff16600a81101515611dc557fe5b602091828204019190069054906101000a900460ff16611582565b826040516020018083805190602001908083835b602083101515611e195780518252602082019150602081019050602083039250611df4565b6001836020036101000a03801982511681845116808217855250505050505090500182805190602001908083835b602083101515611e6c5780518252602082019150602081019050602083039250611e47565b6001836020036101000a038019825116818451168082178552505050505050905001925050506040516020818303038152906040526040518082805190602001908083835b602083101515611ed65780518252602082019150602081019050602083039250611eb1565b6001836020036101000a03801982511681845116808217855250505050505090500191505060405180910390206000191660016002018560ff16600a81101515611f1c57fe5b600a02018460ff16600a81101515611f3057fe5b015460001916148015611f935750600280811115611f4a57fe5b600160d4018560ff16600a81101515611f5f57fe5b018460ff16600a81101515611f7057fe5b602091828204019190069054906101000a900460ff166002811115611f9157fe5b145b156120b95760018060d4018560ff16600a81101515611fae57fe5b018460ff16600a81101515611fbf57fe5b602091828204019190066101000a81548160ff02191690836002811115611fe257fe5b0217905550600160e001600081548092919060010191905055507fce06e8ab51bf5d5143a0d084d1d268fe04c60433e173d039fd4245ed04ca38a8338585604051808473ffffffffffffffffffffffffffffffffffffffff1673ffffffffffffffffffffffffffffffffffffffff1681526020018360ff1660ff1681526020018260ff1660ff16815260200180602001828103825260038152602001807f486974000000000000000000000000000000000000000000000000000000000081525060200194505050505060405180910390a1612172565b7fce06e8ab51bf5d5143a0d084d1d268fe04c60433e173d039fd4245ed04ca38a8338585604051808473ffffffffffffffffffffffffffffffffffffffff1673ffffffffffffffffffffffffffffffffffffffff1681526020018360ff1660ff1681526020018260ff1660ff16815260200180602001828103825260048152602001807f4d6973730000000000000000000000000000000000000000000000000000000081525060200194505050505060405180910390a15b6121b6600160d4018560ff16600a8110151561218a57fe5b018460ff16600a8110151561219b57fe5b602091828204019190069054906101000a900460ff16611582565b9050612637565b6001800160009054906101000a900473ffffffffffffffffffffffffffffffffffffffff1673ffffffffffffffffffffffffffffffffffffffff163373ffffffffffffffffffffffffffffffffffffffff16141561263657612259600160ca018560ff16600a8110151561222d57fe5b018460ff16600a8110151561223e57fe5b602091828204019190069054906101000a900460ff16611582565b826040516020018083805190602001908083835b602083101515612292578051825260208201915060208101905060208303925061226d565b6001836020036101000a03801982511681845116808217855250505050505090500182805190602001908083835b6020831015156122e557805182526020820191506020810190506020830392506122c0565b6001836020036101000a038019825116818451168082178552505050505050905001925050506040516020818303038152906040526040518082805190602001908083835b60208310151561234f578051825260208201915060208101905060208303925061232a565b6001836020036101000a03801982511681845116808217855250505050505090500191505060405180910390206000191660016066018560ff16600a8110151561239557fe5b600a02018460ff16600a811015156123a957fe5b01546000191614801561240c57506002808111156123c357fe5b600160ca018560ff16600a811015156123d857fe5b018460ff16600a811015156123e957fe5b602091828204019190069054906101000a900460ff16600281111561240a57fe5b145b156125325760018060ca018560ff16600a8110151561242757fe5b018460ff16600a8110151561243857fe5b602091828204019190066101000a81548160ff0219169083600281111561245b57fe5b0217905550600160df01600081548092919060010191905055507fce06e8ab51bf5d5143a0d084d1d268fe04c60433e173d039fd4245ed04ca38a8338585604051808473ffffffffffffffffffffffffffffffffffffffff1673ffffffffffffffffffffffffffffffffffffffff1681526020018360ff1660ff1681526020018260ff1660ff16815260200180602001828103825260038152602001807f486974000000000000000000000000000000000000000000000000000000000081525060200194505050505060405180910390a16125eb565b7fce06e8ab51bf5d5143a0d084d1d268fe04c60433e173d039fd4245ed04ca38a8338585604051808473ffffffffffffffffffffffffffffffffffffffff1673ffffffffffffffffffffffffffffffffffffffff1681526020018360ff1660ff1681526020018260ff1660ff16815260200180602001828103825260048152602001807f4d6973730000000000000000000000000000000000000000000000000000000081525060200194505050505060405180910390a15b61262f600160ca018560ff16600a8110151561260357fe5b018460ff16600a8110151561261457fe5b602091828204019190069054906101000a900460ff16611582565b9050612637565b5b9392505050565b612646613983565b6001600201600a80602002604051908101604052809291906000905b828210156126bf578382600a0201600a806020026040519081016040528092919082600a80156126ab576020028201915b81546000191681526020019060010190808311612693575b505050505081526020019060010190612662565b50505050905090565b6000806000600160000160009054906101000a900473ffffffffffffffffffffffffffffffffffffffff1673ffffffffffffffffffffffffffffffffffffffff163373ffffffffffffffffffffffffffffffffffffffff161415612bf3576127ab6001600201600a80602002604051908101604052809291906000905b828210156127a2578382600a0201600a806020026040519081016040528092919082600a801561278e576020028201915b81546000191681526020019060010190808311612776575b505050505081526020019060010190612745565b50505050610efe565b1515612845576040517f08c379a00000000000000000000000000000000000000000000000000000000081526004018080602001828103825260238152602001807f426f61726420616c726561647920696e697469616c697a656428506c6179657281526020017f203129000000000000000000000000000000000000000000000000000000000081525060400191505060405180910390fd5b61284e8561317f565b15156128c2576040517f08c379a00000000000000000000000000000000000000000000000000000000081526004018080602001828103825260178152602001807f496e76616c696420426f61726428506c6179657220312900000000000000000081525060200191505060405180910390fd5b60009250600091505b600a8260ff161015612bee57600090505b600a8160ff161015612be15781600a02810160ff16858480600101955060118110151561290557fe5b60200201511415612a745761291a6001611582565b846040516020018083805190602001908083835b602083101515612953578051825260208201915060208101905060208303925061292e565b6001836020036101000a03801982511681845116808217855250505050505090500182805190602001908083835b6020831015156129a65780518252602082019150602081019050602083039250612981565b6001836020036101000a038019825116818451168082178552505050505050905001925050506040516020818303038152906040526040518082805190602001908083835b602083101515612a1057805182526020820191506020810190506020830392506129eb565b6001836020036101000a038019825116818451168082178552505050505050905001915050604051809103902060016002018360ff16600a81101515612a5257fe5b600a02018260ff16600a81101515612a6657fe5b018160001916905550612bd4565b612a7e6000611582565b846040516020018083805190602001908083835b602083101515612ab75780518252602082019150602081019050602083039250612a92565b6001836020036101000a03801982511681845116808217855250505050505090500182805190602001908083835b602083101515612b0a5780518252602082019150602081019050602083039250612ae5565b6001836020036101000a038019825116818451168082178552505050505050905001925050506040516020818303038152906040526040518082805190602001908083835b602083101515612b745780518252602082019150602081019050602083039250612b4f565b6001836020036101000a038019825116818451168082178552505050505050905001915050604051809103902060016002018360ff16600a81101515612bb657fe5b600a02018260ff16600a81101515612bca57fe5b0181600019169055505b80806001019150506128dc565b81806001019250506128cb565b613115565b6001800160009054906101000a900473ffffffffffffffffffffffffffffffffffffffff1673ffffffffffffffffffffffffffffffffffffffff163373ffffffffffffffffffffffffffffffffffffffff16141561311457612cd06001606601600a80602002604051908101604052809291906000905b82821015612cc7578382600a0201600a806020026040519081016040528092919082600a8015612cb3576020028201915b81546000191681526020019060010190808311612c9b575b505050505081526020019060010190612c6a565b50505050610efe565b1515612d6a576040517f08c379a00000000000000000000000000000000000000000000000000000000081526004018080602001828103825260238152602001807f426f61726420616c726561647920696e697469616c697a656428506c6179657281526020017f203229000000000000000000000000000000000000000000000000000000000081525060400191505060405180910390fd5b612d738561317f565b1515612de7576040517f08c379a00000000000000000000000000000000000000000000000000000000081526004018080602001828103825260178152602001807f496e76616c696420426f61726428506c6179657220322900000000000000000081525060200191505060405180910390fd5b60009250600091505b600a8260ff16101561311357600090505b600a8160ff1610156131065781600a02810160ff168584806001019550601181101515612e2a57fe5b60200201511415612f9957612e3f6001611582565b846040516020018083805190602001908083835b602083101515612e785780518252602082019150602081019050602083039250612e53565b6001836020036101000a03801982511681845116808217855250505050505090500182805190602001908083835b602083101515612ecb5780518252602082019150602081019050602083039250612ea6565b6001836020036101000a038019825116818451168082178552505050505050905001925050506040516020818303038152906040526040518082805190602001908083835b602083101515612f355780518252602082019150602081019050602083039250612f10565b6001836020036101000a038019825116818451168082178552505050505050905001915050604051809103902060016066018360ff16600a81101515612f7757fe5b600a02018260ff16600a81101515612f8b57fe5b0181600019169055506130f9565b612fa36000611582565b846040516020018083805190602001908083835b602083101515612fdc5780518252602082019150602081019050602083039250612fb7565b6001836020036101000a03801982511681845116808217855250505050505090500182805190602001908083835b60208310151561302f578051825260208201915060208101905060208303925061300a565b6001836020036101000a038019825116818451168082178552505050505050905001925050506040516020818303038152906040526040518082805190602001908083835b6020831015156130995780518252602082019150602081019050602083039250613074565b6001836020036101000a038019825116818451168082178552505050505050905001915050604051809103902060016066018360ff16600a811015156130db57fe5b600a02018260ff16600a811015156130ef57fe5b0181600019169055505b8080600101915050612e01565b8180600101925050612df0565b5b5b7f9188cf925e18844e9de2e2239ec5da0c0b09e3923e0c67b39b0034bf3ece1deb33604051808273ffffffffffffffffffffffffffffffffffffffff1673ffffffffffffffffffffffffffffffffffffffff16815260200191505060405180910390a15050505050565b60008060008060008093505b601184101561330d576000925060009150600090505b60118110156133005785816011811015156131b857fe5b6020020151600187866011811015156131cd57fe5b6020020151011480613205575085816011811015156131e857fe5b6020020151600187866011811015156131fd57fe5b602002015103145b156132135782806001019350505b858160118110151561322157fe5b6020020151600a878660118110151561323657fe5b602002015101148061326e5750858160118110151561325157fe5b6020020151600a878660118110151561326657fe5b602002015103145b1561327c5781806001019250505b60008311801561328c5750600082115b156132f3577f966c318c0141aa33ca3b2551c9397d0e445b7d56bb7b67ced1122c6240e5c87086856011811015156132c057fe5b6020020151848460405180848152602001838152602001828152602001935050505060405180910390a160009450613312565b80806001019150506131a1565b838060010194505061318b565b600194505b50505050919050565b60018060000160009054906101000a900473ffffffffffffffffffffffffffffffffffffffff16908060010160009054906101000a900473ffffffffffffffffffffffffffffffffffffffff16908060de0160009054906101000a900473ffffffffffffffffffffffffffffffffffffffff16908060df0154908060e00154908060e10154908060e20154908060e30154908060e40154908060e50160009054906101000a900473ffffffffffffffffffffffffffffffffffffffff1690508a565b600160000160009054906101000a900473ffffffffffffffffffffffffffffffffffffffff1673ffffffffffffffffffffffffffffffffffffffff163373ffffffffffffffffffffffffffffffffffffffff161415801561348e57506001800160009054906101000a900473ffffffffffffffffffffffffffffffffffffffff1673ffffffffffffffffffffffffffffffffffffffff163373ffffffffffffffffffffffffffffffffffffffff1614155b1515613502576040517f08c379a000000000000000000000000000000000000000000000000000000000815260040180806020018281038252600f8152602001807f416c726561647920696e2067616d65000000000000000000000000000000000081525060200191505060405180910390fd5b600160e30154341015151561357f576040517f08c379a00000000000000000000000000000000000000000000000000000000081526004018080602001828103825260148152602001807f496e73756666696369656e742062616c616e636500000000000000000000000081525060200191505060405180910390fd5b600073ffffffffffffffffffffffffffffffffffffffff16600160000160009054906101000a900473ffffffffffffffffffffffffffffffffffffffff1673ffffffffffffffffffffffffffffffffffffffff16148061362f5750600073ffffffffffffffffffffffffffffffffffffffff166001800160009054906101000a900473ffffffffffffffffffffffffffffffffffffffff1673ffffffffffffffffffffffffffffffffffffffff16145b15156136a3576040517f08c379a00000000000000000000000000000000000000000000000000000000081526004018080602001828103825260108152602001807f47616d6520696e2070726f67726573730000000000000000000000000000000081525060200191505060405180910390fd5b600073ffffffffffffffffffffffffffffffffffffffff16600160000160009054906101000a900473ffffffffffffffffffffffffffffffffffffffff1673ffffffffffffffffffffffffffffffffffffffff1614156137465733600160000160006101000a81548173ffffffffffffffffffffffffffffffffffffffff021916908373ffffffffffffffffffffffffffffffffffffffff16021790555061378a565b336001800160006101000a81548173ffffffffffffffffffffffffffffffffffffffff021916908373ffffffffffffffffffffffffffffffffffffffff1602179055505b7fc68496747c2489116dea437701c050954392ff81f76e96cf530bdd493b2eefa133604051808273ffffffffffffffffffffffffffffffffffffffff1673ffffffffffffffffffffffffffffffffffffffff16815260200191505060405180910390a1600073ffffffffffffffffffffffffffffffffffffffff16600160de0160009054906101000a900473ffffffffffffffffffffffffffffffffffffffff1673ffffffffffffffffffffffffffffffffffffffff1614156138b157600160000160009054906101000a900473ffffffffffffffffffffffffffffffffffffffff16600160de0160006101000a81548173ffffffffffffffffffffffffffffffffffffffff021916908373ffffffffffffffffffffffffffffffffffffffff1602179055505b600073ffffffffffffffffffffffffffffffffffffffff166001800160009054906101000a900473ffffffffffffffffffffffffffffffffffffffff1673ffffffffffffffffffffffffffffffffffffffff161415156139525742600160e101819055507f05a06c31a6a63af9782b984b650f5fe85cec843cb67f36dcc54aeb60a54fb864600160e101546040518082815260200191505060405180910390a15b565b610320604051908101604052806005905b61396d6139b2565b8152602001906001900390816139655790505090565b610c8060405190810160405280600a905b61399c6139d5565b8152602001906001900390816139945790505090565b60a060405190810160405280600590602082028038833980820191505090505090565b61014060405190810160405280600a906020820280388339808201915050905050905600a165627a7a723058204ba5f8600ec545eeab76408418b0eb891c72cde3225537e010dbc000b85a01530029",
  "source": "pragma solidity ^0.4.24;\n\ncontract Battleship{\n    \n    address owner;\n    enum SquareState {Empty, X, O}\n\n    struct Game{\n        address player1;\n        address player2;\n        bytes32 [10][10] board_1;\n        bytes32 [10][10] board_2;\n        SquareState[10][10] board_guess_1; // Stores guesses made by player 1\n        SquareState[10][10] board_guess_2; // Stores guesses made by player 2\n        address turn;\n        uint player1_hits;\n        uint player2_hits;\n        uint timelock;\n        uint duration;\n        uint threshold;\n        uint gameNo;\n        address winner;        \n    }\n    \n    constructor() public {\n        owner = msg.sender;\n    }\n\n    Game public game;\n\n    //Events\n    event NewGame(address creator);\n    event PlayerJoinedGame(address player);\n    event GameStartTime(uint time);\n    event GameBoardInitSuccess(address player);\n    event PlayerMadeMove(address player, uint8 x, uint8 y);\n    event TimedOut(uint cur_time, uint prev_time, uint diff, uint duration);\n    event GameWinner(address winner);\n    event PlayerMadeAHit(address player, uint8 x, uint8 y, string status);\n    event NotValidBoard(uint cell, uint x, uint y);\n    event NotEmptyBoard(bool status);\n\n    function newGame() public{\n        require(msg.sender == owner, \"Only owner can create new Game\");\n        game.threshold = 4 ether;\n        game.duration = 60; //60s for timeout\n        game.player1_hits = 0;\n        game.player2_hits = 0;\n        for(uint8 i=0;i<10;i++){\n            for(uint8 j=0;j<10;j++)\n                game.board_1[i][j] = bytes32(\"\");\n        }\n        for(i=0;i<10;i++){\n            for(j=0;j<10;j++)\n                game.board_2[i][j] = bytes32(\"\");\n        }\n\n        emit NewGame(msg.sender);\n    }\n\n    \n    function joinGame() public payable{\n        require(msg.sender!=game.player1 && msg.sender!=game.player2, \"Already in game\");\n        require(msg.value>=game.threshold, \"Insufficient balance\");\n        require(game.player1 == address(0) || game.player2 == address(0), \"Game in progress\");\n\n        if(game.player1==address(0))\n            game.player1 = msg.sender;\n        else game.player2 = msg.sender;\n        \n        emit PlayerJoinedGame(msg.sender);\n        if(game.turn == address(0))\n            game.turn = game.player1;\n        if(game.player2 != address(0)){\n            game.timelock = now;\n            emit GameStartTime(game.timelock);\n        }\n    }\n\n    function getAddress() public view returns(address,address){\n        return (game.player1,game.player2);\n    }\n    \n    function tostring(SquareState state) public pure returns(string memory)\n    {\n        if(SquareState.X == state){\n            return \"X\";\n        }\n        if(SquareState.O == state){\n            return \"O\";\n        }\n        if(SquareState.Empty == state){\n            return \" \";\n        }\n    }\n    function extract_ships(uint[17] _board) public pure returns(uint[5][5]){\n        uint[5][5] memory ships;\n        uint i=0; uint k=0;\n        while(i < 17){\n            uint j = 1;\n            while(j+i < 17){\n                if(_board[i]+1 == _board[i+j] || _board[j] == _board[i]+10*j)\n                    j++;\n                else\n                    break;\n            }\n            for(uint l = i; l < j; l++)\n                ships[k][l-i] = _board[l];\n            i = j;\n            k++;\n        }\n        return ships;\n    }\n\n    function isValidBoard(uint[17] _board) public returns(bool){    \n        for(uint i=0; i<17; i++){\n            uint dir_x = 0; uint dir_y = 0;\n            for(uint j=0; j < 17; j++){\n                if(_board[i]+1 == _board[j] || _board[i]-1 == _board[j])\n                    dir_x++;\n                if(_board[i]+10 == _board[j] || _board[i]-10 == _board[j])\n                    dir_y++;\n                if(dir_x > 0 && dir_y > 0){\n                    emit NotValidBoard(_board[i], dir_x, dir_y);\n                    return false;\n                }\n            }\n        }\n        return true;\n    }\n    \n    function isEmpty(bytes32[10][10] _board) public returns(bool){\n        for(uint8 i=0;i<10;i++){\n            for(uint8 j=0;j<10;j++){\n                if(_board[i][j]!=bytes32(\"\")){\n                    emit NotEmptyBoard(true);\n                    return false;\n                }\n            }\n        }\n        return true;\n    }\n\n    function getBoard1() public view returns(bytes32[10][10]){\n        return game.board_1;\n    }\n\n    function initialize_board(uint[17] _board,string _salt) public {\n        if(msg.sender==game.player1){\n            require(isEmpty(game.board_1), \"Board already initialized(Player 1)\");\n            require(isValidBoard(_board), \"Invalid Board(Player 1)\");\n            uint k=0;\n            for(uint8 i=0;i<10;i++){\n                for(uint8 j=0;j<10;j++){\n                    if(_board[k++] == j+10*i)\n                        game.board_1[i][j] = keccak256(abi.encodePacked(tostring(SquareState.X),_salt));\n                    else\n                        game.board_1[i][j] = keccak256(abi.encodePacked(tostring(SquareState.Empty),_salt));\n                }\n            }\n            \n        }\n        else if(msg.sender==game.player2){\n            require(isEmpty(game.board_2), \"Board already initialized(Player 2)\");\n            require(isValidBoard(_board), \"Invalid Board(Player 2)\");\n            k=0;\n            for(i=0;i<10;i++){\n                for(j=0;j<10;j++){\n                    if(_board[k++] == j+10*i)\n                        game.board_2[i][j] = keccak256(abi.encodePacked(tostring(SquareState.X),_salt));\n                    else\n                        game.board_2[i][j] = keccak256(abi.encodePacked(tostring(SquareState.Empty),_salt));\n                }\n            }\n        }\n        emit GameBoardInitSuccess(msg.sender);\n    }\n    \n    function commit_move(uint8 x, uint8 y) public {\n        require(x>0 && x<10 && y>0 && y<10, \"Invalid move\");\n        require(game.winner == address(0), \"Game already has a winner\");\n        require(game.turn == msg.sender, \"Not your turn\");\n        require(now-game.timelock <= game.duration, \"Move TimedOut\");\n\n        if(msg.sender==game.player1){\n            require(!isEmpty(game.board_2), \"Commiting move before player2 initialized board\");\n            game.board_guess_1[x][y] = SquareState.O;\n        }\n        else if(msg.sender == game.player2){\n            require(!isEmpty(game.board_1), \"Commiting move before player1 initialized board\");\n            game.board_guess_2[x][y] = SquareState.O;\n        }\n\n        game.turn = next_turn();\n\n        emit PlayerMadeMove(msg.sender, x, y);\n    }\n\n    function reveal_move(uint8 x, uint8 y,string _salt) public returns(string){\n        require(x>0 && x<10 && y>0 && y<10, \"Invalid move\");\n        require(now-game.timelock <= game.duration, \"Late in revealing move\");\n\n        if(msg.sender==game.player1){\n            if(game.board_1[x][y] == keccak256(abi.encodePacked(tostring(game.board_guess_2[x][y]),_salt)) &&\n                game.board_guess_2[x][y] == SquareState.O){\n                game.board_guess_2[x][y] = SquareState.X;\n                game.player2_hits++;\n                emit PlayerMadeAHit(msg.sender, x, y, \"Hit\");\n            }\n            else \n                emit PlayerMadeAHit(msg.sender, x, y, \"Miss\");\n            return tostring(game.board_guess_2[x][y]);\n        }\n        if(msg.sender==game.player2){\n            if(game.board_2[x][y] == keccak256(abi.encodePacked(tostring(game.board_guess_1[x][y]),_salt))&&\n                game.board_guess_1[x][y] == SquareState.O){\n                game.board_guess_1[x][y] = SquareState.X;\n                game.player1_hits++;\n                emit PlayerMadeAHit(msg.sender, x, y, \"Hit\");\n            }\n            else \n                emit PlayerMadeAHit(msg.sender, x, y, \"Miss\");\n            return tostring(game.board_guess_1[x][y]);\n        }\n\n    }\n\n    function check_n_set_winner() public{\n        if(game.winner == address(0)){\n            if(game.player1_hits >= 17){\n                game.winner = game.player1;\n                game.winner.transfer(address(this).balance);\n            }\n            else if(game.player2_hits >= 17){\n                game.winner = game.player2;\n                game.winner.transfer(address(this).balance);\n            }\n        }\n        emit GameWinner(game.winner);\n    }\n    \n    function next_turn() public view returns(address){\n        if(game.turn == game.player1)\n            return game.player2;\n        else\n            return game.player1;\n    }\n\n    // function to redeem ethers on timeout\n    function claimTimeout() public {\n        require(now - game.timelock >= game.duration, \"Game not yet timed out\");\n        if(game.turn==game.player1){\n            game.winner = game.player2;\n            game.player2.transfer(address(this).balance);\n        }\n        if(game.turn==game.player2){\n            game.winner = game.player1;\n            game.player1.transfer(address(this).balance);\n        }\n        emit TimedOut(now, game.timelock, now-game.timelock, game.duration);\n    }\n}",
  "sourcePath": "/home/samanvaya/courses/sem5/Blockchain/DApp_Battleship/contracts/Battleship.sol",
  "compiler": {
    "name": "solc",
    "version": "0.4.24+commit.e67f0147.Emscripten.clang"
  },
  "schemaVersion": "3.0.18",
  "updatedAt": "2019-11-28T14:17:33.255Z",
  "devdoc": {
    "methods": {}
  },
  "userdoc": {
    "methods": {}
  }
}