{
  "contractName": "Battleship",
  "abi": [
    {
      "constant": true,
      "inputs": [],
      "name": "game",
      "outputs": [
        {
          "name": "player1",
          "type": "address"
        },
        {
          "name": "player2",
          "type": "address"
        },
        {
          "name": "turn",
          "type": "address"
        },
        {
          "name": "player1_hits",
          "type": "uint256"
        },
        {
          "name": "player2_hits",
          "type": "uint256"
        },
        {
          "name": "timelock",
          "type": "uint256"
        },
        {
          "name": "duration",
          "type": "uint256"
        },
        {
          "name": "threshold",
          "type": "uint256"
        },
        {
          "name": "gameNo",
          "type": "uint256"
        },
        {
          "name": "winner",
          "type": "address"
        }
      ],
      "payable": false,
      "stateMutability": "view",
      "type": "function"
    },
    {
      "inputs": [],
      "payable": false,
      "stateMutability": "nonpayable",
      "type": "constructor"
    },
    {
      "anonymous": false,
      "inputs": [
        {
          "indexed": false,
          "name": "creator",
          "type": "address"
        }
      ],
      "name": "NewGame",
      "type": "event"
    },
    {
      "anonymous": false,
      "inputs": [
        {
          "indexed": false,
          "name": "player",
          "type": "address"
        }
      ],
      "name": "PlayerJoinedGame",
      "type": "event"
    },
    {
      "anonymous": false,
      "inputs": [
        {
          "indexed": false,
          "name": "time",
          "type": "uint256"
        }
      ],
      "name": "GameStartTime",
      "type": "event"
    },
    {
      "anonymous": false,
      "inputs": [
        {
          "indexed": false,
          "name": "player",
          "type": "address"
        }
      ],
      "name": "GameBoardInitSuccess",
      "type": "event"
    },
    {
      "anonymous": false,
      "inputs": [
        {
          "indexed": false,
          "name": "player",
          "type": "address"
        },
        {
          "indexed": false,
          "name": "x",
          "type": "uint8"
        },
        {
          "indexed": false,
          "name": "y",
          "type": "uint8"
        }
      ],
      "name": "PlayerMadeMove",
      "type": "event"
    },
    {
      "anonymous": false,
      "inputs": [
        {
          "indexed": false,
          "name": "cur_time",
          "type": "uint256"
        },
        {
          "indexed": false,
          "name": "prev_time",
          "type": "uint256"
        },
        {
          "indexed": false,
          "name": "diff",
          "type": "uint256"
        },
        {
          "indexed": false,
          "name": "duration",
          "type": "uint256"
        }
      ],
      "name": "TimedOut",
      "type": "event"
    },
    {
      "anonymous": false,
      "inputs": [
        {
          "indexed": false,
          "name": "winner",
          "type": "address"
        }
      ],
      "name": "GameWinner",
      "type": "event"
    },
    {
      "anonymous": false,
      "inputs": [
        {
          "indexed": false,
          "name": "player",
          "type": "address"
        },
        {
          "indexed": false,
          "name": "x",
          "type": "uint8"
        },
        {
          "indexed": false,
          "name": "y",
          "type": "uint8"
        },
        {
          "indexed": false,
          "name": "status",
          "type": "string"
        }
      ],
      "name": "PlayerMadeAHit",
      "type": "event"
    },
    {
      "constant": false,
      "inputs": [],
      "name": "newGame",
      "outputs": [],
      "payable": false,
      "stateMutability": "nonpayable",
      "type": "function"
    },
    {
      "constant": false,
      "inputs": [],
      "name": "joinGame",
      "outputs": [],
      "payable": true,
      "stateMutability": "payable",
      "type": "function"
    },
    {
      "constant": true,
      "inputs": [],
      "name": "getAddress",
      "outputs": [
        {
          "name": "",
          "type": "address"
        },
        {
          "name": "",
          "type": "address"
        }
      ],
      "payable": false,
      "stateMutability": "view",
      "type": "function"
    },
    {
      "constant": true,
      "inputs": [
        {
          "name": "state",
          "type": "uint8"
        }
      ],
      "name": "tostring",
      "outputs": [
        {
          "name": "",
          "type": "string"
        }
      ],
      "payable": false,
      "stateMutability": "pure",
      "type": "function"
    },
    {
      "constant": true,
      "inputs": [
        {
          "name": "_board",
          "type": "uint8[10][10]"
        }
      ],
      "name": "isValidBoard",
      "outputs": [
        {
          "name": "",
          "type": "bool"
        }
      ],
      "payable": false,
      "stateMutability": "pure",
      "type": "function"
    },
    {
      "constant": true,
      "inputs": [
        {
          "name": "_board",
          "type": "bytes32[10][10]"
        }
      ],
      "name": "isEmpty",
      "outputs": [
        {
          "name": "",
          "type": "bool"
        }
      ],
      "payable": false,
      "stateMutability": "pure",
      "type": "function"
    },
    {
      "constant": false,
      "inputs": [
        {
          "name": "_board",
          "type": "uint8[10][10]"
        },
        {
          "name": "_salt",
          "type": "string"
        }
      ],
      "name": "initialize_board",
      "outputs": [],
      "payable": false,
      "stateMutability": "nonpayable",
      "type": "function"
    },
    {
      "constant": false,
      "inputs": [
        {
          "name": "x",
          "type": "uint8"
        },
        {
          "name": "y",
          "type": "uint8"
        }
      ],
      "name": "commit_move",
      "outputs": [],
      "payable": false,
      "stateMutability": "nonpayable",
      "type": "function"
    },
    {
      "constant": false,
      "inputs": [
        {
          "name": "x",
          "type": "uint8"
        },
        {
          "name": "y",
          "type": "uint8"
        },
        {
          "name": "_salt",
          "type": "string"
        }
      ],
      "name": "reveal_move",
      "outputs": [
        {
          "name": "",
          "type": "string"
        }
      ],
      "payable": false,
      "stateMutability": "nonpayable",
      "type": "function"
    },
    {
      "constant": false,
      "inputs": [],
      "name": "check_n_set_winner",
      "outputs": [],
      "payable": false,
      "stateMutability": "nonpayable",
      "type": "function"
    },
    {
      "constant": true,
      "inputs": [],
      "name": "next_turn",
      "outputs": [
        {
          "name": "",
          "type": "address"
        }
      ],
      "payable": false,
      "stateMutability": "view",
      "type": "function"
    },
    {
      "constant": false,
      "inputs": [],
      "name": "claimTimeout",
      "outputs": [],
      "payable": false,
      "stateMutability": "nonpayable",
      "type": "function"
    }
  ],
  "bytecode": "0x608060405234801561001057600080fd5b50336000806101000a81548173ffffffffffffffffffffffffffffffffffffffff021916908373ffffffffffffffffffffffffffffffffffffffff160217905550613152806100606000396000f3006080604052600436106100c4576000357c0100000000000000000000000000000000000000000000000000000000900463ffffffff1680620dab78146100c957806309e6c5ca146101065780630e1da6c3146101aa57806329f41815146101c15780633564f04414610218578063363a94c5146102c157806338cc4831146102d85780637d03f5f31461036257806383beedba146103795780639d0352621461044b578063c3fe3e2814610547578063d412e41414610661578063d4f77b1c14610705575b600080fd5b3480156100d557600080fd5b50610104600480360381019080803560ff169060200190929190803560ff16906020019092919050505061070f565b005b34801561011257600080fd5b5061019060048036038101908080610c800190600a80602002604051908101604052809291906000905b8282101561017f5783826101400201600a806020026040519081016040528092919082600a6020028082843782019150505050508152602001906001019061013c565b505050509192919290505050610bf2565b604051808215151515815260200191505060405180910390f35b3480156101b657600080fd5b506101bf610c82565b005b3480156101cd57600080fd5b506101d661103b565b604051808273ffffffffffffffffffffffffffffffffffffffff1673ffffffffffffffffffffffffffffffffffffffff16815260200191505060405180910390f35b34801561022457600080fd5b50610246600480360381019080803560ff169060200190929190505050611113565b6040518080602001828103825283818151815260200191508051906020019080838360005b8381101561028657808201518184015260208101905061026b565b50505050905090810190601f1680156102b35780820380516001836020036101000a031916815260200191505b509250505060405180910390f35b3480156102cd57600080fd5b506102d661122e565b005b3480156102e457600080fd5b506102ed61150f565b604051808373ffffffffffffffffffffffffffffffffffffffff1673ffffffffffffffffffffffffffffffffffffffff1681526020018273ffffffffffffffffffffffffffffffffffffffff1673ffffffffffffffffffffffffffffffffffffffff1681526020019250505060405180910390f35b34801561036e57600080fd5b50610377611565565b005b34801561038557600080fd5b5061044960048036038101908080610c800190600a80602002604051908101604052809291906000905b828210156103f25783826101400201600a806020026040519081016040528092919082600a602002808284378201915050505050815260200190600101906103af565b505050509192919290803590602001908201803590602001908080601f01602080910402602001604051908101604052809392919081815260200183838082843782019150505050505091929192905050506116c1565b005b34801561045757600080fd5b506104cc600480360381019080803560ff169060200190929190803560ff169060200190929190803590602001908201803590602001908080601f0160208091040260200160405190810160405280939291908181526020018383808284378201915050505050509192919290505050611ea5565b6040518080602001828103825283818151815260200191508051906020019080838360005b8381101561050c5780820151818401526020810190506104f1565b50505050905090810190601f1680156105395780820380516001836020036101000a031916815260200191505b509250505060405180910390f35b34801561055357600080fd5b5061055c6128ce565b604051808b73ffffffffffffffffffffffffffffffffffffffff1673ffffffffffffffffffffffffffffffffffffffff1681526020018a73ffffffffffffffffffffffffffffffffffffffff1673ffffffffffffffffffffffffffffffffffffffff1681526020018973ffffffffffffffffffffffffffffffffffffffff1673ffffffffffffffffffffffffffffffffffffffff1681526020018881526020018781526020018681526020018581526020018481526020018381526020018273ffffffffffffffffffffffffffffffffffffffff1673ffffffffffffffffffffffffffffffffffffffff1681526020019a505050505050505050505060405180910390f35b34801561066d57600080fd5b506106eb60048036038101908080610c800190600a80602002604051908101604052809291906000905b828210156106da5783826101400201600a806020026040519081016040528092919082600a60200280828437820191505050505081526020019060010190610697565b505050509192919290505050612990565b604051808215151515815260200191505060405180910390f35b61070d612baf565b005b60008260ff161180156107255750600a8260ff16105b8015610734575060008160ff16115b80156107435750600a8160ff16105b15156107b7576040517f08c379a000000000000000000000000000000000000000000000000000000000815260040180806020018281038252600c8152602001807f496e76616c6964206d6f7665000000000000000000000000000000000000000081525060200191505060405180910390fd5b600073ffffffffffffffffffffffffffffffffffffffff16600160e50160009054906101000a900473ffffffffffffffffffffffffffffffffffffffff1673ffffffffffffffffffffffffffffffffffffffff16141515610880576040517f08c379a00000000000000000000000000000000000000000000000000000000081526004018080602001828103825260198152602001807f47616d6520616c72656164792068617320612077696e6e65720000000000000081525060200191505060405180910390fd5b3373ffffffffffffffffffffffffffffffffffffffff16600160de0160009054906101000a900473ffffffffffffffffffffffffffffffffffffffff1673ffffffffffffffffffffffffffffffffffffffff16141515610948576040517f08c379a000000000000000000000000000000000000000000000000000000000815260040180806020018281038252600d8152602001807f4e6f7420796f7572207475726e0000000000000000000000000000000000000081525060200191505060405180910390fd5b600160e20154600160e101544203111515156109cc576040517f08c379a000000000000000000000000000000000000000000000000000000000815260040180806020018281038252600d8152602001807f4d6f76652054696d65644f75740000000000000000000000000000000000000081525060200191505060405180910390fd5b600160000160009054906101000a900473ffffffffffffffffffffffffffffffffffffffff1673ffffffffffffffffffffffffffffffffffffffff163373ffffffffffffffffffffffffffffffffffffffff161415610a7a576002600160ca018360ff16600a81101515610a3c57fe5b018260ff16600a81101515610a4d57fe5b602091828204019190066101000a81548160ff02191690836002811115610a7057fe5b0217905550610b24565b6001800160009054906101000a900473ffffffffffffffffffffffffffffffffffffffff1673ffffffffffffffffffffffffffffffffffffffff163373ffffffffffffffffffffffffffffffffffffffff161415610b23576002600160d4018360ff16600a81101515610ae957fe5b018260ff16600a81101515610afa57fe5b602091828204019190066101000a81548160ff02191690836002811115610b1d57fe5b02179055505b5b610b2c61103b565b600160de0160006101000a81548173ffffffffffffffffffffffffffffffffffffffff021916908373ffffffffffffffffffffffffffffffffffffffff1602179055507f5d9cd1dce9c1219eb7a3e210b9a08e452ca68f1854089d5e0ae3a838ff8daea7338383604051808473ffffffffffffffffffffffffffffffffffffffff1673ffffffffffffffffffffffffffffffffffffffff1681526020018360ff1660ff1681526020018260ff1660ff168152602001935050505060405180910390a15050565b60008060008091505b600a8260ff161015610c7657600090505b600a8160ff161015610c69576000801916848360ff16600a81101515610c2e57fe5b60200201518260ff16600a81101515610c4357fe5b602002015160001916141515610c5c5760009250610c7b565b8080600101915050610c0c565b8180600101925050610bfb565b600192505b5050919050565b600160e20154600160e10154420310151515610d06576040517f08c379a00000000000000000000000000000000000000000000000000000000081526004018080602001828103825260168152602001807f47616d65206e6f74207965742074696d6564206f75740000000000000000000081525060200191505060405180910390fd5b600160000160009054906101000a900473ffffffffffffffffffffffffffffffffffffffff1673ffffffffffffffffffffffffffffffffffffffff16600160de0160009054906101000a900473ffffffffffffffffffffffffffffffffffffffff1673ffffffffffffffffffffffffffffffffffffffff161415610e6f576001800160009054906101000a900473ffffffffffffffffffffffffffffffffffffffff16600160e50160006101000a81548173ffffffffffffffffffffffffffffffffffffffff021916908373ffffffffffffffffffffffffffffffffffffffff1602179055506001800160009054906101000a900473ffffffffffffffffffffffffffffffffffffffff1673ffffffffffffffffffffffffffffffffffffffff166108fc3073ffffffffffffffffffffffffffffffffffffffff16319081150290604051600060405180830381858888f19350505050158015610e6d573d6000803e3d6000fd5b505b6001800160009054906101000a900473ffffffffffffffffffffffffffffffffffffffff1673ffffffffffffffffffffffffffffffffffffffff16600160de0160009054906101000a900473ffffffffffffffffffffffffffffffffffffffff1673ffffffffffffffffffffffffffffffffffffffff161415610fd957600160000160009054906101000a900473ffffffffffffffffffffffffffffffffffffffff16600160e50160006101000a81548173ffffffffffffffffffffffffffffffffffffffff021916908373ffffffffffffffffffffffffffffffffffffffff160217905550600160000160009054906101000a900473ffffffffffffffffffffffffffffffffffffffff1673ffffffffffffffffffffffffffffffffffffffff166108fc3073ffffffffffffffffffffffffffffffffffffffff16319081150290604051600060405180830381858888f19350505050158015610fd7573d6000803e3d6000fd5b505b7f1049997c6b2e00774338012916551864da8b939e8cfb6aff1cb5eaf827d9e7df42600160e10154600160e101544203600160e201546040518085815260200184815260200183815260200182815260200194505050505060405180910390a1565b6000600160000160009054906101000a900473ffffffffffffffffffffffffffffffffffffffff1673ffffffffffffffffffffffffffffffffffffffff16600160de0160009054906101000a900473ffffffffffffffffffffffffffffffffffffffff1673ffffffffffffffffffffffffffffffffffffffff1614156110e7576001800160009054906101000a900473ffffffffffffffffffffffffffffffffffffffff169050611110565b600160000160009054906101000a900473ffffffffffffffffffffffffffffffffffffffff1690505b90565b606081600281111561112157fe5b6001600281111561112e57fe5b1415611171576040805190810160405280600181526020017f58000000000000000000000000000000000000000000000000000000000000008152509050611229565b81600281111561117d57fe5b60028081111561118957fe5b14156111cc576040805190810160405280600181526020017f4f000000000000000000000000000000000000000000000000000000000000008152509050611229565b8160028111156111d857fe5b600060028111156111e557fe5b1415611228576040805190810160405280600181526020017f20000000000000000000000000000000000000000000000000000000000000008152509050611229565b5b919050565b600073ffffffffffffffffffffffffffffffffffffffff16600160e50160009054906101000a900473ffffffffffffffffffffffffffffffffffffffff1673ffffffffffffffffffffffffffffffffffffffff161415611485576011600160df015410151561138857600160000160009054906101000a900473ffffffffffffffffffffffffffffffffffffffff16600160e50160006101000a81548173ffffffffffffffffffffffffffffffffffffffff021916908373ffffffffffffffffffffffffffffffffffffffff160217905550600160e50160009054906101000a900473ffffffffffffffffffffffffffffffffffffffff1673ffffffffffffffffffffffffffffffffffffffff166108fc3073ffffffffffffffffffffffffffffffffffffffff16319081150290604051600060405180830381858888f19350505050158015611382573d6000803e3d6000fd5b50611484565b6011600160e00154101515611483576001800160009054906101000a900473ffffffffffffffffffffffffffffffffffffffff16600160e50160006101000a81548173ffffffffffffffffffffffffffffffffffffffff021916908373ffffffffffffffffffffffffffffffffffffffff160217905550600160e50160009054906101000a900473ffffffffffffffffffffffffffffffffffffffff1673ffffffffffffffffffffffffffffffffffffffff166108fc3073ffffffffffffffffffffffffffffffffffffffff16319081150290604051600060405180830381858888f19350505050158015611481573d6000803e3d6000fd5b505b5b5b7f946966aa5bcb45de82b706a1b6c350017152137d8683e879ec9b0796fe3ff757600160e50160009054906101000a900473ffffffffffffffffffffffffffffffffffffffff16604051808273ffffffffffffffffffffffffffffffffffffffff1673ffffffffffffffffffffffffffffffffffffffff16815260200191505060405180910390a1565b600080600160000160009054906101000a900473ffffffffffffffffffffffffffffffffffffffff166001800160009054906101000a900473ffffffffffffffffffffffffffffffffffffffff16915091509091565b6000809054906101000a900473ffffffffffffffffffffffffffffffffffffffff1673ffffffffffffffffffffffffffffffffffffffff163373ffffffffffffffffffffffffffffffffffffffff16141515611629576040517f08c379a000000000000000000000000000000000000000000000000000000000815260040180806020018281038252601e8152602001807f4f6e6c79206f776e65722063616e20637265617465206e65772047616d65000081525060200191505060405180910390fd5b673782dace9d900000600160e30181905550603c600160e201819055506000600160df01819055506000600160e001819055507f70afdeea5872e39fcc84edc30bfbbdc4892e22020c423596b2e5c89f4fc2050933604051808273ffffffffffffffffffffffffffffffffffffffff1673ffffffffffffffffffffffffffffffffffffffff16815260200191505060405180910390a1565b600080600160000160009054906101000a900473ffffffffffffffffffffffffffffffffffffffff1673ffffffffffffffffffffffffffffffffffffffff163373ffffffffffffffffffffffffffffffffffffffff161415611a82576117a26001600201600a80602002604051908101604052809291906000905b82821015611799578382600a0201600a806020026040519081016040528092919082600a8015611785576020028201915b8154600019168152602001906001019080831161176d575b50505050508152602001906001019061173c565b50505050610bf2565b151561183c576040517f08c379a00000000000000000000000000000000000000000000000000000000081526004018080602001828103825260238152602001807f426f61726420616c726561647920696e697469616c697a656428506c6179657281526020017f203129000000000000000000000000000000000000000000000000000000000081525060400191505060405180910390fd5b61184584612990565b15156118b9576040517f08c379a00000000000000000000000000000000000000000000000000000000081526004018080602001828103825260178152602001807f496e76616c696420426f61726428506c6179657220312900000000000000000081525060200191505060405180910390fd5b600091505b600a8260ff161015611a7d57600090505b600a8160ff161015611a705761190e848360ff16600a811015156118ef57fe5b60200201518260ff16600a8110151561190457fe5b6020020151611113565b836040516020018083805190602001908083835b6020831015156119475780518252602082019150602081019050602083039250611922565b6001836020036101000a03801982511681845116808217855250505050505090500182805190602001908083835b60208310151561199a5780518252602082019150602081019050602083039250611975565b6001836020036101000a038019825116818451168082178552505050505050905001925050506040516020818303038152906040526040518082805190602001908083835b602083101515611a0457805182526020820191506020810190506020830392506119df565b6001836020036101000a038019825116818451168082178552505050505050905001915050604051809103902060016002018360ff16600a81101515611a4657fe5b600a02018260ff16600a81101515611a5a57fe5b01816000191690555080806001019150506118cf565b81806001019250506118be565b611e3c565b6001800160009054906101000a900473ffffffffffffffffffffffffffffffffffffffff1673ffffffffffffffffffffffffffffffffffffffff163373ffffffffffffffffffffffffffffffffffffffff161415611e3b57611b5f6001606601600a80602002604051908101604052809291906000905b82821015611b56578382600a0201600a806020026040519081016040528092919082600a8015611b42576020028201915b81546000191681526020019060010190808311611b2a575b505050505081526020019060010190611af9565b50505050610bf2565b1515611bf9576040517f08c379a00000000000000000000000000000000000000000000000000000000081526004018080602001828103825260238152602001807f426f61726420616c726561647920696e697469616c697a656428506c6179657281526020017f203229000000000000000000000000000000000000000000000000000000000081525060400191505060405180910390fd5b611c0284612990565b1515611c76576040517f08c379a00000000000000000000000000000000000000000000000000000000081526004018080602001828103825260178152602001807f496e76616c696420426f61726428506c6179657220322900000000000000000081525060200191505060405180910390fd5b600091505b600a8260ff161015611e3a57600090505b600a8160ff161015611e2d57611ccb848360ff16600a81101515611cac57fe5b60200201518260ff16600a81101515611cc157fe5b6020020151611113565b836040516020018083805190602001908083835b602083101515611d045780518252602082019150602081019050602083039250611cdf565b6001836020036101000a03801982511681845116808217855250505050505090500182805190602001908083835b602083101515611d575780518252602082019150602081019050602083039250611d32565b6001836020036101000a038019825116818451168082178552505050505050905001925050506040516020818303038152906040526040518082805190602001908083835b602083101515611dc15780518252602082019150602081019050602083039250611d9c565b6001836020036101000a038019825116818451168082178552505050505050905001915050604051809103902060016066018360ff16600a81101515611e0357fe5b600a02018260ff16600a81101515611e1757fe5b0181600019169055508080600101915050611c8c565b8180600101925050611c7b565b5b5b7f9188cf925e18844e9de2e2239ec5da0c0b09e3923e0c67b39b0034bf3ece1deb33604051808273ffffffffffffffffffffffffffffffffffffffff1673ffffffffffffffffffffffffffffffffffffffff16815260200191505060405180910390a150505050565b606060008460ff16118015611ebd5750600a8460ff16105b8015611ecc575060008360ff16115b8015611edb5750600a8360ff16105b1515611f4f576040517f08c379a000000000000000000000000000000000000000000000000000000000815260040180806020018281038252600c8152602001807f496e76616c6964206d6f7665000000000000000000000000000000000000000081525060200191505060405180910390fd5b600160e20154600160e10154420311151515611fd3576040517f08c379a00000000000000000000000000000000000000000000000000000000081526004018080602001828103825260168152602001807f4c61746520696e2072657665616c696e67206d6f76650000000000000000000081525060200191505060405180910390fd5b600160000160009054906101000a900473ffffffffffffffffffffffffffffffffffffffff1673ffffffffffffffffffffffffffffffffffffffff163373ffffffffffffffffffffffffffffffffffffffff16141561244d57612070600160d4018560ff16600a8110151561204457fe5b018460ff16600a8110151561205557fe5b602091828204019190069054906101000a900460ff16611113565b826040516020018083805190602001908083835b6020831015156120a95780518252602082019150602081019050602083039250612084565b6001836020036101000a03801982511681845116808217855250505050505090500182805190602001908083835b6020831015156120fc57805182526020820191506020810190506020830392506120d7565b6001836020036101000a038019825116818451168082178552505050505050905001925050506040516020818303038152906040526040518082805190602001908083835b6020831015156121665780518252602082019150602081019050602083039250612141565b6001836020036101000a03801982511681845116808217855250505050505090500191505060405180910390206000191660016002018560ff16600a811015156121ac57fe5b600a02018460ff16600a811015156121c057fe5b01546000191614801561222357506002808111156121da57fe5b600160d4018560ff16600a811015156121ef57fe5b018460ff16600a8110151561220057fe5b602091828204019190069054906101000a900460ff16600281111561222157fe5b145b156123495760018060d4018560ff16600a8110151561223e57fe5b018460ff16600a8110151561224f57fe5b602091828204019190066101000a81548160ff0219169083600281111561227257fe5b0217905550600160e001600081548092919060010191905055507fce06e8ab51bf5d5143a0d084d1d268fe04c60433e173d039fd4245ed04ca38a8338585604051808473ffffffffffffffffffffffffffffffffffffffff1673ffffffffffffffffffffffffffffffffffffffff1681526020018360ff1660ff1681526020018260ff1660ff16815260200180602001828103825260038152602001807f486974000000000000000000000000000000000000000000000000000000000081525060200194505050505060405180910390a1612402565b7fce06e8ab51bf5d5143a0d084d1d268fe04c60433e173d039fd4245ed04ca38a8338585604051808473ffffffffffffffffffffffffffffffffffffffff1673ffffffffffffffffffffffffffffffffffffffff1681526020018360ff1660ff1681526020018260ff1660ff16815260200180602001828103825260048152602001807f4d6973730000000000000000000000000000000000000000000000000000000081525060200194505050505060405180910390a15b612446600160d4018560ff16600a8110151561241a57fe5b018460ff16600a8110151561242b57fe5b602091828204019190069054906101000a900460ff16611113565b90506128c7565b6001800160009054906101000a900473ffffffffffffffffffffffffffffffffffffffff1673ffffffffffffffffffffffffffffffffffffffff163373ffffffffffffffffffffffffffffffffffffffff1614156128c6576124e9600160ca018560ff16600a811015156124bd57fe5b018460ff16600a811015156124ce57fe5b602091828204019190069054906101000a900460ff16611113565b826040516020018083805190602001908083835b60208310151561252257805182526020820191506020810190506020830392506124fd565b6001836020036101000a03801982511681845116808217855250505050505090500182805190602001908083835b6020831015156125755780518252602082019150602081019050602083039250612550565b6001836020036101000a038019825116818451168082178552505050505050905001925050506040516020818303038152906040526040518082805190602001908083835b6020831015156125df57805182526020820191506020810190506020830392506125ba565b6001836020036101000a03801982511681845116808217855250505050505090500191505060405180910390206000191660016066018560ff16600a8110151561262557fe5b600a02018460ff16600a8110151561263957fe5b01546000191614801561269c575060028081111561265357fe5b600160ca018560ff16600a8110151561266857fe5b018460ff16600a8110151561267957fe5b602091828204019190069054906101000a900460ff16600281111561269a57fe5b145b156127c25760018060ca018560ff16600a811015156126b757fe5b018460ff16600a811015156126c857fe5b602091828204019190066101000a81548160ff021916908360028111156126eb57fe5b0217905550600160df01600081548092919060010191905055507fce06e8ab51bf5d5143a0d084d1d268fe04c60433e173d039fd4245ed04ca38a8338585604051808473ffffffffffffffffffffffffffffffffffffffff1673ffffffffffffffffffffffffffffffffffffffff1681526020018360ff1660ff1681526020018260ff1660ff16815260200180602001828103825260038152602001807f486974000000000000000000000000000000000000000000000000000000000081525060200194505050505060405180910390a161287b565b7fce06e8ab51bf5d5143a0d084d1d268fe04c60433e173d039fd4245ed04ca38a8338585604051808473ffffffffffffffffffffffffffffffffffffffff1673ffffffffffffffffffffffffffffffffffffffff1681526020018360ff1660ff1681526020018260ff1660ff16815260200180602001828103825260048152602001807f4d6973730000000000000000000000000000000000000000000000000000000081525060200194505050505060405180910390a15b6128bf600160ca018560ff16600a8110151561289357fe5b018460ff16600a811015156128a457fe5b602091828204019190069054906101000a900460ff16611113565b90506128c7565b5b9392505050565b60018060000160009054906101000a900473ffffffffffffffffffffffffffffffffffffffff16908060010160009054906101000a900473ffffffffffffffffffffffffffffffffffffffff16908060de0160009054906101000a900473ffffffffffffffffffffffffffffffffffffffff16908060df0154908060e00154908060e10154908060e20154908060e30154908060e40154908060e50160009054906101000a900473ffffffffffffffffffffffffffffffffffffffff1690508a565b60008060008060008093505b600a841015612ba1576000925060009150600090505b600a811015612b9457600160028111156129c857fe5b8685600a811015156129d657fe5b602002015182600a811015156129e857fe5b602002015160028111156129f857fe5b1415612b8757600a60018501108015612a4e575060016002811115612a1957fe5b8660018601600a81101515612a2a57fe5b602002015182600a81101515612a3c57fe5b60200201516002811115612a4c57fe5b145b80612aa55750600060018503118015612aa4575060016002811115612a6f57fe5b8660018603600a81101515612a8057fe5b602002015182600a81101515612a9257fe5b60200201516002811115612aa257fe5b145b5b15612ab35781806001019250505b600a60018201108015612b03575060016002811115612ace57fe5b8685600a81101515612adc57fe5b602002015160018301600a81101515612af157fe5b60200201516002811115612b0157fe5b145b80612b5a5750600060018203118015612b59575060016002811115612b2457fe5b8685600a81101515612b3257fe5b602002015160018303600a81101515612b4757fe5b60200201516002811115612b5757fe5b145b5b15612b685782806001019350505b600083138015612b785750600082135b15612b865760009450612ba6565b5b80806001019150506129b2565b838060010194505061299c565b600194505b50505050919050565b600160000160009054906101000a900473ffffffffffffffffffffffffffffffffffffffff1673ffffffffffffffffffffffffffffffffffffffff163373ffffffffffffffffffffffffffffffffffffffff1614158015612c6057506001800160009054906101000a900473ffffffffffffffffffffffffffffffffffffffff1673ffffffffffffffffffffffffffffffffffffffff163373ffffffffffffffffffffffffffffffffffffffff1614155b1515612cd4576040517f08c379a000000000000000000000000000000000000000000000000000000000815260040180806020018281038252600f8152602001807f416c726561647920696e2067616d65000000000000000000000000000000000081525060200191505060405180910390fd5b600160e301543410151515612d51576040517f08c379a00000000000000000000000000000000000000000000000000000000081526004018080602001828103825260148152602001807f496e73756666696369656e742062616c616e636500000000000000000000000081525060200191505060405180910390fd5b600073ffffffffffffffffffffffffffffffffffffffff16600160000160009054906101000a900473ffffffffffffffffffffffffffffffffffffffff1673ffffffffffffffffffffffffffffffffffffffff161480612e015750600073ffffffffffffffffffffffffffffffffffffffff166001800160009054906101000a900473ffffffffffffffffffffffffffffffffffffffff1673ffffffffffffffffffffffffffffffffffffffff16145b1515612e75576040517f08c379a00000000000000000000000000000000000000000000000000000000081526004018080602001828103825260108152602001807f47616d6520696e2070726f67726573730000000000000000000000000000000081525060200191505060405180910390fd5b600073ffffffffffffffffffffffffffffffffffffffff16600160000160009054906101000a900473ffffffffffffffffffffffffffffffffffffffff1673ffffffffffffffffffffffffffffffffffffffff161415612f185733600160000160006101000a81548173ffffffffffffffffffffffffffffffffffffffff021916908373ffffffffffffffffffffffffffffffffffffffff160217905550612f5c565b336001800160006101000a81548173ffffffffffffffffffffffffffffffffffffffff021916908373ffffffffffffffffffffffffffffffffffffffff1602179055505b7fc68496747c2489116dea437701c050954392ff81f76e96cf530bdd493b2eefa133604051808273ffffffffffffffffffffffffffffffffffffffff1673ffffffffffffffffffffffffffffffffffffffff16815260200191505060405180910390a1600073ffffffffffffffffffffffffffffffffffffffff16600160de0160009054906101000a900473ffffffffffffffffffffffffffffffffffffffff1673ffffffffffffffffffffffffffffffffffffffff16141561308357600160000160009054906101000a900473ffffffffffffffffffffffffffffffffffffffff16600160de0160006101000a81548173ffffffffffffffffffffffffffffffffffffffff021916908373ffffffffffffffffffffffffffffffffffffffff1602179055505b600073ffffffffffffffffffffffffffffffffffffffff166001800160009054906101000a900473ffffffffffffffffffffffffffffffffffffffff1673ffffffffffffffffffffffffffffffffffffffff161415156131245742600160e101819055507f05a06c31a6a63af9782b984b650f5fe85cec843cb67f36dcc54aeb60a54fb864600160e101546040518082815260200191505060405180910390a15b5600a165627a7a723058206fb997fb47d0bc0d3919e82d3653a8594fc4204031fd32dac4e4f86e84b65f8f0029",
  "source": "pragma solidity ^0.4.24;\n\ncontract Battleship{\n    \n    address owner;\n    enum SquareState {Empty, X, O}\n\n    struct Game{\n        address player1;\n        address player2;\n        bytes32 [10][10] board_1;\n        bytes32 [10][10] board_2;\n        SquareState[10][10] board_guess_1; // Stores guesses made by player 1\n        SquareState[10][10] board_guess_2; // Stores guesses made by player 2\n        address turn;\n        uint player1_hits;\n        uint player2_hits;\n        uint timelock;\n        uint duration;\n        uint threshold;\n        uint gameNo;\n        address winner;        \n    }\n    \n    constructor() public {\n        owner = msg.sender;\n    }\n\n    Game public game;\n\n    //Events\n    event NewGame(address creator);\n    event PlayerJoinedGame(address player);\n    event GameStartTime(uint time);\n    event GameBoardInitSuccess(address player);\n    event PlayerMadeMove(address player, uint8 x, uint8 y);\n    event TimedOut(uint cur_time, uint prev_time, uint diff, uint duration);\n    event GameWinner(address winner);\n    event PlayerMadeAHit(address player, uint8 x, uint8 y, string status);\n\n    function newGame() public{\n        require(msg.sender == owner, \"Only owner can create new Game\");\n        game.threshold = 4 ether;\n        game.duration = 60; //60s for timeout\n        game.player1_hits = 0;\n        game.player2_hits = 0;\n        emit NewGame(msg.sender);\n    }\n\n    \n    function joinGame() public payable{\n        require(msg.sender!=game.player1 && msg.sender!=game.player2, \"Already in game\");\n        require(msg.value>=game.threshold, \"Insufficient balance\");\n        require(game.player1 == address(0) || game.player2 == address(0), \"Game in progress\");\n\n        if(game.player1==address(0))\n            game.player1 = msg.sender;\n        else game.player2 = msg.sender;\n        \n        emit PlayerJoinedGame(msg.sender);\n        if(game.turn == address(0))\n            game.turn = game.player1;\n        if(game.player2 != address(0)){\n            game.timelock = now;\n            emit GameStartTime(game.timelock);\n        }\n    }\n\n    function getAddress() public view returns(address,address){\n        return (game.player1,game.player2);\n    }\n    \n    function tostring(SquareState state) public pure returns(string memory)\n    {\n        if(SquareState.X == state){\n            return \"X\";\n        }\n        if(SquareState.O == state){\n            return \"O\";\n        }\n        if(SquareState.Empty == state){\n            return \" \";\n        }\n    }\n    \n    function isValidBoard(SquareState[10][10] _board) public pure returns(bool){\n        \n        for(uint i=0; i < 10; i++){\n            int dir_x=0; int dir_y=0;\n            for(uint j=0; j < 10; j++){\n                if(_board[i][j] == SquareState.X){\n                    if((i+1<10 && _board[i+1][j] == SquareState.X)||\n                        (i-1>0 && _board[i-1][j] == SquareState.X))\n                        dir_y++;\n                    if((j+1<10 && _board[i][j+1] == SquareState.X)||\n                        (j-1>0 && _board[i][j-1] == SquareState.X))\n                        dir_x++;\n                    if(dir_x >0 && dir_y >0)\n                        return false;\n                }\n            }\n        }\n        return true;\n    }\n    \n    function isEmpty(bytes32[10][10] _board) public pure returns(bool){\n        for(uint8 i=0;i<10;i++){\n            for(uint8 j=0;j<10;j++){\n                if(_board[i][j]!=bytes32(\"\"))\n                    return false;\n            }\n        }\n        return true;\n    }\n\n    function initialize_board(SquareState[10][10] _board,string _salt) public {\n        if(msg.sender==game.player1){\n            require(isEmpty(game.board_1), \"Board already initialized(Player 1)\");\n            require(isValidBoard(_board), \"Invalid Board(Player 1)\");\n            for(uint8 i=0;i<10;i++){\n                for(uint8 j=0;j<10;j++){\n                    game.board_1[i][j] = keccak256(abi.encodePacked(tostring(_board[i][j]),_salt));\n                }\n            }\n            \n        }\n        else if(msg.sender==game.player2){\n            require(isEmpty(game.board_2), \"Board already initialized(Player 2)\");\n            require(isValidBoard(_board), \"Invalid Board(Player 2)\");\n            for(i=0;i<10;i++){\n                for(j=0;j<10;j++){\n                    game.board_2[i][j] = keccak256(abi.encodePacked(tostring(_board[i][j]),_salt));\n                }\n            }\n        }\n        emit GameBoardInitSuccess(msg.sender);\n    }\n    \n    function commit_move(uint8 x, uint8 y) public {\n        require(x>0 && x<10 && y>0 && y<10, \"Invalid move\");\n        require(game.winner == address(0), \"Game already has a winner\");\n        require(game.turn == msg.sender, \"Not your turn\");\n        require(now-game.timelock <= game.duration, \"Move TimedOut\");\n\n        if(msg.sender==game.player1)\n            game.board_guess_1[x][y] = SquareState.O;\n        else if(msg.sender == game.player2)\n            game.board_guess_2[x][y] = SquareState.O;\n\n        game.turn = next_turn();\n\n        emit PlayerMadeMove(msg.sender, x, y);\n    }\n\n    function reveal_move(uint8 x, uint8 y,string _salt) public returns(string){\n        require(x>0 && x<10 && y>0 && y<10, \"Invalid move\");\n        require(now-game.timelock <= game.duration, \"Late in revealing move\");\n\n        if(msg.sender==game.player1){\n            if(game.board_1[x][y] == keccak256(abi.encodePacked(tostring(game.board_guess_2[x][y]),_salt)) &&\n                game.board_guess_2[x][y] == SquareState.O){\n                game.board_guess_2[x][y] = SquareState.X;\n                game.player2_hits++;\n                emit PlayerMadeAHit(msg.sender, x, y, \"Hit\");\n            }\n            else \n                emit PlayerMadeAHit(msg.sender, x, y, \"Miss\");\n            return tostring(game.board_guess_2[x][y]);\n        }\n        if(msg.sender==game.player2){\n            if(game.board_2[x][y] == keccak256(abi.encodePacked(tostring(game.board_guess_1[x][y]),_salt))&&\n                game.board_guess_1[x][y] == SquareState.O){\n                game.board_guess_1[x][y] = SquareState.X;\n                game.player1_hits++;\n                emit PlayerMadeAHit(msg.sender, x, y, \"Hit\");\n            }\n            else \n                emit PlayerMadeAHit(msg.sender, x, y, \"Miss\");\n            return tostring(game.board_guess_1[x][y]);\n        }\n\n    }\n\n    function check_n_set_winner() public{\n        if(game.winner == address(0)){\n            if(game.player1_hits >= 17){\n                game.winner = game.player1;\n                game.winner.transfer(address(this).balance);\n            }\n            else if(game.player2_hits >= 17){\n                game.winner = game.player2;\n                game.winner.transfer(address(this).balance);\n            }\n        }\n        emit GameWinner(game.winner);\n    }\n    \n    function next_turn() public view returns(address){\n        if(game.turn == game.player1)\n            return game.player2;\n        else\n            return game.player1;\n    }\n\n    // function to redeem ethers on timeout\n    function claimTimeout() public {\n        require(now - game.timelock >= game.duration, \"Game not yet timed out\");\n        if(game.turn==game.player1){\n            game.winner = game.player2;\n            game.player2.transfer(address(this).balance);\n        }\n        if(game.turn==game.player2){\n            game.winner = game.player1;\n            game.player1.transfer(address(this).balance);\n        }\n        emit TimedOut(now, game.timelock, now-game.timelock, game.duration);\n    }\n}",
  "sourcePath": "/home/masterg/Documents/5th Semester/Blockchain/Assignment2/contracts/Battleship.sol",
  "compiler": {
    "name": "solc",
    "version": "0.4.24+commit.e67f0147.Emscripten.clang"
  },
  "schemaVersion": "3.0.16",
  "updatedAt": "2019-11-27T23:54:35.648Z",
  "devdoc": {
    "methods": {}
  },
  "userdoc": {
    "methods": {}
  }
}